{
  "contractName": "SaleToken",
  "abi": [
    {
      "inputs": [
        {
          "internalType": "address",
          "name": "_tokenAddress",
          "type": "address"
        }
      ],
      "stateMutability": "nonpayable",
      "type": "constructor"
    },
    {
      "inputs": [
        {
          "internalType": "uint256",
          "name": "",
          "type": "uint256"
        }
      ],
      "name": "SaleTokenList",
      "outputs": [
        {
          "internalType": "uint256",
          "name": "",
          "type": "uint256"
        }
      ],
      "stateMutability": "view",
      "type": "function",
      "constant": true
    },
    {
      "inputs": [],
      "name": "Token",
      "outputs": [
        {
          "internalType": "contract GyulToken",
          "name": "",
          "type": "address"
        }
      ],
      "stateMutability": "view",
      "type": "function",
      "constant": true
    },
    {
      "inputs": [
        {
          "internalType": "uint256",
          "name": "",
          "type": "uint256"
        }
      ],
      "name": "tokenPrices",
      "outputs": [
        {
          "internalType": "uint256",
          "name": "",
          "type": "uint256"
        }
      ],
      "stateMutability": "view",
      "type": "function",
      "constant": true
    },
    {
      "inputs": [
        {
          "internalType": "uint256",
          "name": "_tokenId",
          "type": "uint256"
        },
        {
          "internalType": "uint256",
          "name": "_price",
          "type": "uint256"
        }
      ],
      "name": "SalesToken",
      "outputs": [],
      "stateMutability": "nonpayable",
      "type": "function"
    },
    {
      "inputs": [
        {
          "internalType": "uint256",
          "name": "_tokenId",
          "type": "uint256"
        }
      ],
      "name": "PurchaseToken",
      "outputs": [],
      "stateMutability": "payable",
      "type": "function",
      "payable": true
    },
    {
      "inputs": [
        {
          "internalType": "uint256",
          "name": "_tokenId",
          "type": "uint256"
        }
      ],
      "name": "cancelSaleToken",
      "outputs": [],
      "stateMutability": "nonpayable",
      "type": "function"
    },
    {
      "inputs": [],
      "name": "getSaleTokenList",
      "outputs": [
        {
          "components": [
            {
              "internalType": "uint256",
              "name": "tokenId",
              "type": "uint256"
            },
            {
              "internalType": "uint256",
              "name": "Rank",
              "type": "uint256"
            },
            {
              "internalType": "uint256",
              "name": "Type",
              "type": "uint256"
            },
            {
              "internalType": "uint256",
              "name": "price",
              "type": "uint256"
            }
          ],
          "internalType": "struct SaleToken.TokenInfo[]",
          "name": "",
          "type": "tuple[]"
        }
      ],
      "stateMutability": "view",
      "type": "function",
      "constant": true
    },
    {
      "inputs": [
        {
          "internalType": "address",
          "name": "_tokenOwner",
          "type": "address"
        }
      ],
      "name": "getOwnerTokens",
      "outputs": [
        {
          "components": [
            {
              "internalType": "uint256",
              "name": "tokenId",
              "type": "uint256"
            },
            {
              "internalType": "uint256",
              "name": "Rank",
              "type": "uint256"
            },
            {
              "internalType": "uint256",
              "name": "Type",
              "type": "uint256"
            },
            {
              "internalType": "uint256",
              "name": "price",
              "type": "uint256"
            }
          ],
          "internalType": "struct SaleToken.TokenInfo[]",
          "name": "",
          "type": "tuple[]"
        }
      ],
      "stateMutability": "view",
      "type": "function",
      "constant": true
    }
  ],
  "bytecode": "0x60806040523480156200001157600080fd5b5060405162001561380380620015618339818101604052810190620000379190620000e8565b806000806101000a81548173ffffffffffffffffffffffffffffffffffffffff021916908373ffffffffffffffffffffffffffffffffffffffff160217905550506200011a565b600080fd5b600073ffffffffffffffffffffffffffffffffffffffff82169050919050565b6000620000b08262000083565b9050919050565b620000c281620000a3565b8114620000ce57600080fd5b50565b600081519050620000e281620000b7565b92915050565b6000602082840312156200010157620001006200007e565b5b60006200011184828501620000d1565b91505092915050565b611437806200012a6000396000f3fe60806040526004361061007b5760003560e01c8063921e033b1161004e578063921e033b1461012d578063c241267614610156578063d63d4af014610181578063e5afe3e6146101be5761007b565b80630c8cc569146100805780631899ca99146100bd5780633048f512146100e65780634e4dc98814610102575b600080fd5b34801561008c57600080fd5b506100a760048036038101906100a29190610e5c565b6101fb565b6040516100b49190610e98565b60405180910390f35b3480156100c957600080fd5b506100e460048036038101906100df9190610e5c565b61021f565b005b61010060048036038101906100fb9190610e5c565b61033d565b005b34801561010e57600080fd5b50610117610551565b6040516101249190610fc6565b60405180910390f35b34801561013957600080fd5b50610154600480360381019061014f9190610fe8565b6107a9565b005b34801561016257600080fd5b5061016b610978565b60405161017891906110a7565b60405180910390f35b34801561018d57600080fd5b506101a860048036038101906101a39190611100565b61099c565b6040516101b59190610fc6565b60405180910390f35b3480156101ca57600080fd5b506101e560048036038101906101e09190610e5c565b610d05565b6040516101f29190610e98565b60405180910390f35b6002818154811061020b57600080fd5b906000526020600020016000915090505481565b60008060009054906101000a900473ffffffffffffffffffffffffffffffffffffffff1673ffffffffffffffffffffffffffffffffffffffff16636352211e836040518263ffffffff1660e01b815260040161027b9190610e98565b602060405180830381865afa158015610298573d6000803e3d6000fd5b505050506040513d601f19601f820116820180604052508101906102bc9190611142565b90503373ffffffffffffffffffffffffffffffffffffffff168173ffffffffffffffffffffffffffffffffffffffff16146102f657600080fd5b600060016000848152602001908152602001600020541161031657600080fd5b6000600160008481526020019081526020016000208190555061033882610d1d565b505050565b60008060009054906101000a900473ffffffffffffffffffffffffffffffffffffffff1673ffffffffffffffffffffffffffffffffffffffff16636352211e836040518263ffffffff1660e01b81526004016103999190610e98565b602060405180830381865afa1580156103b6573d6000803e3d6000fd5b505050506040513d601f19601f820116820180604052508101906103da9190611142565b90503373ffffffffffffffffffffffffffffffffffffffff168173ffffffffffffffffffffffffffffffffffffffff160361041457600080fd5b600060016000848152602001908152602001600020541161043457600080fd5b346001600084815260200190815260200160002054111561045457600080fd5b8073ffffffffffffffffffffffffffffffffffffffff166108fc349081150290604051600060405180830381858888f1935050505015801561049a573d6000803e3d6000fd5b5060008054906101000a900473ffffffffffffffffffffffffffffffffffffffff1673ffffffffffffffffffffffffffffffffffffffff166323b872dd8233856040518463ffffffff1660e01b81526004016104f89392919061117e565b600060405180830381600087803b15801561051257600080fd5b505af1158015610526573d6000803e3d6000fd5b505050506000600160008481526020019081526020016000208190555061054c82610d1d565b505050565b606060006002805490501161056557600080fd5b600060028054905067ffffffffffffffff811115610586576105856111b5565b5b6040519080825280602002602001820160405280156105bf57816020015b6105ac610df9565b8152602001906001900390816105a45790505b50905060005b6002805490508110156107a1576000600282815481106105e8576105e76111e4565b5b9060005260206000200154905060008060009054906101000a900473ffffffffffffffffffffffffffffffffffffffff1673ffffffffffffffffffffffffffffffffffffffff1663d9f33c14836040518263ffffffff1660e01b81526004016106519190610e98565b602060405180830381865afa15801561066e573d6000803e3d6000fd5b505050506040513d601f19601f820116820180604052508101906106929190611228565b905060008060009054906101000a900473ffffffffffffffffffffffffffffffffffffffff1673ffffffffffffffffffffffffffffffffffffffff166376aed2e1846040518263ffffffff1660e01b81526004016106f09190610e98565b602060405180830381865afa15801561070d573d6000803e3d6000fd5b505050506040513d601f19601f820116820180604052508101906107319190611228565b905060006001600085815260200190815260200160002054905060405180608001604052808581526020018481526020018381526020018281525086868151811061077f5761077e6111e4565b5b602002602001018190525050505050808061079990611284565b9150506105c5565b508091505090565b60008060009054906101000a900473ffffffffffffffffffffffffffffffffffffffff1673ffffffffffffffffffffffffffffffffffffffff16636352211e846040518263ffffffff1660e01b81526004016108059190610e98565b602060405180830381865afa158015610822573d6000803e3d6000fd5b505050506040513d601f19601f820116820180604052508101906108469190611142565b90503373ffffffffffffffffffffffffffffffffffffffff168173ffffffffffffffffffffffffffffffffffffffff161461088057600080fd5b6000821161088d57600080fd5b60008054906101000a900473ffffffffffffffffffffffffffffffffffffffff1673ffffffffffffffffffffffffffffffffffffffff1663e985e9c533306040518363ffffffff1660e01b81526004016108e89291906112cc565b602060405180830381865afa158015610905573d6000803e3d6000fd5b505050506040513d601f19601f82011682018060405250810190610929919061132d565b61093257600080fd5b8160016000858152602001908152602001600020819055506002839080600181540180825580915050600190039060005260206000200160009091909190915055505050565b60008054906101000a900473ffffffffffffffffffffffffffffffffffffffff1681565b606060008060009054906101000a900473ffffffffffffffffffffffffffffffffffffffff1673ffffffffffffffffffffffffffffffffffffffff166370a08231846040518263ffffffff1660e01b81526004016109fa919061135a565b602060405180830381865afa158015610a17573d6000803e3d6000fd5b505050506040513d601f19601f82011682018060405250810190610a3b9190611228565b905060008103610a4a57600080fd5b60008167ffffffffffffffff811115610a6657610a656111b5565b5b604051908082528060200260200182016040528015610a9f57816020015b610a8c610df9565b815260200190600190039081610a845790505b50905060005b82811015610cfa5760008060009054906101000a900473ffffffffffffffffffffffffffffffffffffffff1673ffffffffffffffffffffffffffffffffffffffff16632f745c5987846040518363ffffffff1660e01b8152600401610b0b929190611375565b602060405180830381865afa158015610b28573d6000803e3d6000fd5b505050506040513d601f19601f82011682018060405250810190610b4c9190611228565b905060008060009054906101000a900473ffffffffffffffffffffffffffffffffffffffff1673ffffffffffffffffffffffffffffffffffffffff1663d9f33c14836040518263ffffffff1660e01b8152600401610baa9190610e98565b602060405180830381865afa158015610bc7573d6000803e3d6000fd5b505050506040513d601f19601f82011682018060405250810190610beb9190611228565b905060008060009054906101000a900473ffffffffffffffffffffffffffffffffffffffff1673ffffffffffffffffffffffffffffffffffffffff166376aed2e1846040518263ffffffff1660e01b8152600401610c499190610e98565b602060405180830381865afa158015610c66573d6000803e3d6000fd5b505050506040513d601f19601f82011682018060405250810190610c8a9190611228565b9050600060016000858152602001908152602001600020549050604051806080016040528085815260200184815260200183815260200182815250868681518110610cd857610cd76111e4565b5b6020026020010181905250505050508080610cf290611284565b915050610aa5565b508092505050919050565b60016020528060005260406000206000915090505481565b600080600090505b600280549050811015610dee578260028281548110610d4757610d466111e4565b5b906000526020600020015403610ddb5760026001600280549050610d6b919061139e565b81548110610d7c57610d7b6111e4565b5b906000526020600020015460028281548110610d9b57610d9a6111e4565b5b90600052602060002001819055506002805480610dbb57610dba6113d2565b5b600190038181906000526020600020016000905590556001915050610df4565b8080610de690611284565b915050610d25565b50600090505b919050565b6040518060800160405280600081526020016000815260200160008152602001600081525090565b600080fd5b6000819050919050565b610e3981610e26565b8114610e4457600080fd5b50565b600081359050610e5681610e30565b92915050565b600060208284031215610e7257610e71610e21565b5b6000610e8084828501610e47565b91505092915050565b610e9281610e26565b82525050565b6000602082019050610ead6000830184610e89565b92915050565b600081519050919050565b600082825260208201905092915050565b6000819050602082019050919050565b610ee881610e26565b82525050565b608082016000820151610f046000850182610edf565b506020820151610f176020850182610edf565b506040820151610f2a6040850182610edf565b506060820151610f3d6060850182610edf565b50505050565b6000610f4f8383610eee565b60808301905092915050565b6000602082019050919050565b6000610f7382610eb3565b610f7d8185610ebe565b9350610f8883610ecf565b8060005b83811015610fb9578151610fa08882610f43565b9750610fab83610f5b565b925050600181019050610f8c565b5085935050505092915050565b60006020820190508181036000830152610fe08184610f68565b905092915050565b60008060408385031215610fff57610ffe610e21565b5b600061100d85828601610e47565b925050602061101e85828601610e47565b9150509250929050565b600073ffffffffffffffffffffffffffffffffffffffff82169050919050565b6000819050919050565b600061106d61106861106384611028565b611048565b611028565b9050919050565b600061107f82611052565b9050919050565b600061109182611074565b9050919050565b6110a181611086565b82525050565b60006020820190506110bc6000830184611098565b92915050565b60006110cd82611028565b9050919050565b6110dd816110c2565b81146110e857600080fd5b50565b6000813590506110fa816110d4565b92915050565b60006020828403121561111657611115610e21565b5b6000611124848285016110eb565b91505092915050565b60008151905061113c816110d4565b92915050565b60006020828403121561115857611157610e21565b5b60006111668482850161112d565b91505092915050565b611178816110c2565b82525050565b6000606082019050611193600083018661116f565b6111a0602083018561116f565b6111ad6040830184610e89565b949350505050565b7f4e487b7100000000000000000000000000000000000000000000000000000000600052604160045260246000fd5b7f4e487b7100000000000000000000000000000000000000000000000000000000600052603260045260246000fd5b60008151905061122281610e30565b92915050565b60006020828403121561123e5761123d610e21565b5b600061124c84828501611213565b91505092915050565b7f4e487b7100000000000000000000000000000000000000000000000000000000600052601160045260246000fd5b600061128f82610e26565b91507fffffffffffffffffffffffffffffffffffffffffffffffffffffffffffffffff82036112c1576112c0611255565b5b600182019050919050565b60006040820190506112e1600083018561116f565b6112ee602083018461116f565b9392505050565b60008115159050919050565b61130a816112f5565b811461131557600080fd5b50565b60008151905061132781611301565b92915050565b60006020828403121561134357611342610e21565b5b600061135184828501611318565b91505092915050565b600060208201905061136f600083018461116f565b92915050565b600060408201905061138a600083018561116f565b6113976020830184610e89565b9392505050565b60006113a982610e26565b91506113b483610e26565b9250828210156113c7576113c6611255565b5b828203905092915050565b7f4e487b7100000000000000000000000000000000000000000000000000000000600052603160045260246000fdfea2646970667358221220dd967fa2721d10f893f2c7e5dfcd34e09d54ae70704d49169c631276d9f6019c64736f6c634300080f0033",
  "immutableReferences": {},
  "source": "// SPDX-License-Identifier: MIT\npragma solidity ^0.8.15;\n\nimport \"./gyulToken.sol\";\n\n//gyultoken json, CA\n//https://gateway.pinata.cloud/ipfs/QmUsEKtVS5Gn4rZWbYfD7D4qLLKPf1YbsBWYaSqtmCPBzf\n//gyultoken ca : 0x7e2AF00779dba0ff31806920A8Cd46405Db16A57\n// sale token ca  : 0x0dCc0E16EE7cA66e15c9E039411c08805EB86237\ncontract SaleToken{\n    GyulToken public Token;\n\n    constructor(address _tokenAddress){\n        Token = GyulToken(_tokenAddress);\n    }\n\n    struct TokenInfo{\n        uint tokenId;\n        uint Rank;\n        uint Type;\n        uint price;\n    }\n\n    //   \n    mapping(uint => uint) public tokenPrices;\n\n    //   \n    uint[] public SaleTokenList;\n\n    function SalesToken(uint _tokenId, uint _price) public {\n\n        address tokenOwner = Token.ownerOf(_tokenId);\n\n        require((tokenOwner) == msg.sender);\n        require(_price > 0);\n        //  isapprovedForall\n        require(Token.isApprovedForAll(msg.sender, address(this)));\n\n        tokenPrices[_tokenId] = _price;\n        SaleTokenList.push(_tokenId);\n\n    }\n\n    //  -> CA-> \n    function PurchaseToken(uint _tokenId) public payable{\n        address tokenOwner = Token.ownerOf(_tokenId);\n        require(tokenOwner != msg.sender);\n        require(tokenPrices[_tokenId] > 0);\n        require(tokenPrices[_tokenId]<= msg.value);\n\n        payable(tokenOwner).transfer(msg.value);\n\n        Token.transferFrom(tokenOwner, msg.sender, _tokenId);\n        tokenPrices[_tokenId] = 0;\n        popSaleToken(_tokenId);\n    }\n\n        function cancelSaleToken(uint _tokenId) public {\n        address tokenOwner = Token.ownerOf(_tokenId);\n        require(tokenOwner == msg.sender);\n        require(tokenPrices[_tokenId] > 0);\n\n        tokenPrices[_tokenId] = 0;\n        popSaleToken(_tokenId);\n    }\n\n    function popSaleToken(uint _tokenId) private returns(bool){\n        for(uint i=0; i<SaleTokenList.length; i++){\n            if (SaleTokenList[i] == _tokenId){\n                // i = index\n\n                SaleTokenList[i] = SaleTokenList[SaleTokenList.length - 1];\n                SaleTokenList.pop();\n                return true;\n            }\n        }\n        return false;\n    }\n\n    function getSaleTokenList() public view returns(TokenInfo[] memory){\n        require(SaleTokenList.length > 0);\n        TokenInfo[] memory list = new TokenInfo[](SaleTokenList.length);\n\n        for(uint i = 0; i < SaleTokenList.length; i++){\n            uint tokenId = SaleTokenList[i];\n            uint Rank = Token.getTokenRank(tokenId);\n            uint Type = Token.getTokenType(tokenId);\n            uint price = tokenPrices[tokenId];\n            list[i] = TokenInfo(tokenId, Rank, Type, price);\n        }\n\n        return list;\n    }\n\n    function getOwnerTokens(address _tokenOwner) public view returns(TokenInfo[] memory){\n        uint balance = Token.balanceOf(_tokenOwner);\n\n        require(balance != 0);\n        TokenInfo[] memory list = new TokenInfo[](balance);\n        for (uint i=0; i<balance; i++){\n            uint tokenId = Token.tokenOfOwnerByIndex(_tokenOwner, i);\n            uint Rank = Token.getTokenRank(tokenId);\n            uint Type = Token.getTokenType(tokenId);\n            uint price = tokenPrices[tokenId];\n\n            list[i] = TokenInfo(tokenId, Rank, Type, price);\n        }\n\n        return list;\n    }\n\n    \n\n}",
  "sourcePath": "/home/gyuri/workspace/blockchain/220728/truffle/contracts/SaleToken.sol",
  "compiler": {
    "name": "solc",
    "version": "0.8.15+commit.e14f2714.Emscripten.clang"
  },
  "schemaVersion": "3.4.8",
  "updatedAt": "2022-07-28T07:09:25.776Z",
  "networkType": "ethereum",
  "devdoc": {
    "kind": "dev",
    "methods": {},
    "version": 1
  },
  "userdoc": {
    "kind": "user",
    "methods": {},
    "version": 1
  }
}