{
  "contractName": "SaleToken",
  "abi": [
    {
      "inputs": [
        {
          "internalType": "address",
          "name": "_tokenAddress",
          "type": "address"
        }
      ],
      "stateMutability": "nonpayable",
      "type": "constructor"
    },
    {
      "inputs": [
        {
          "internalType": "uint256",
          "name": "",
          "type": "uint256"
        }
      ],
      "name": "SaleTokenList",
      "outputs": [
        {
          "internalType": "uint256",
          "name": "",
          "type": "uint256"
        }
      ],
      "stateMutability": "view",
      "type": "function",
      "constant": true
    },
    {
      "inputs": [],
      "name": "Token",
      "outputs": [
        {
          "internalType": "contract GyulToken",
          "name": "",
          "type": "address"
        }
      ],
      "stateMutability": "view",
      "type": "function",
      "constant": true
    },
    {
      "inputs": [
        {
          "internalType": "uint256",
          "name": "",
          "type": "uint256"
        }
      ],
      "name": "tokenPrices",
      "outputs": [
        {
          "internalType": "uint256",
          "name": "",
          "type": "uint256"
        }
      ],
      "stateMutability": "view",
      "type": "function",
      "constant": true
    },
    {
      "inputs": [
        {
          "internalType": "uint256",
          "name": "_tokenId",
          "type": "uint256"
        },
        {
          "internalType": "uint256",
          "name": "_price",
          "type": "uint256"
        }
      ],
      "name": "SalesToken",
      "outputs": [],
      "stateMutability": "nonpayable",
      "type": "function"
    },
    {
      "inputs": [
        {
          "internalType": "uint256",
          "name": "_tokenId",
          "type": "uint256"
        }
      ],
      "name": "PurchaseToken",
      "outputs": [],
      "stateMutability": "payable",
      "type": "function",
      "payable": true
    },
    {
      "inputs": [
        {
          "internalType": "uint256",
          "name": "_tokenId",
          "type": "uint256"
        }
      ],
      "name": "cancelSaleToken",
      "outputs": [],
      "stateMutability": "nonpayable",
      "type": "function"
    },
    {
      "inputs": [],
      "name": "getSaleTokenList",
      "outputs": [
        {
          "components": [
            {
              "internalType": "uint256",
              "name": "tokenId",
              "type": "uint256"
            },
            {
              "internalType": "uint256",
              "name": "Rank",
              "type": "uint256"
            },
            {
              "internalType": "uint256",
              "name": "Type",
              "type": "uint256"
            },
            {
              "internalType": "uint256",
              "name": "price",
              "type": "uint256"
            }
          ],
          "internalType": "struct SaleToken.TokenInfo[]",
          "name": "",
          "type": "tuple[]"
        }
      ],
      "stateMutability": "view",
      "type": "function",
      "constant": true
    },
    {
      "inputs": [
        {
          "internalType": "address",
          "name": "_tokenOwner",
          "type": "address"
        }
      ],
      "name": "getOwnerTokens",
      "outputs": [
        {
          "components": [
            {
              "internalType": "uint256",
              "name": "tokenId",
              "type": "uint256"
            },
            {
              "internalType": "uint256",
              "name": "Rank",
              "type": "uint256"
            },
            {
              "internalType": "uint256",
              "name": "Type",
              "type": "uint256"
            },
            {
              "internalType": "uint256",
              "name": "price",
              "type": "uint256"
            }
          ],
          "internalType": "struct SaleToken.TokenInfo[]",
          "name": "",
          "type": "tuple[]"
        }
      ],
      "stateMutability": "view",
      "type": "function",
      "constant": true
    },
    {
      "inputs": [
        {
          "internalType": "address",
          "name": "_tokenOwner",
          "type": "address"
        }
      ],
      "name": "getLatestToken",
      "outputs": [
        {
          "components": [
            {
              "internalType": "uint256",
              "name": "tokenId",
              "type": "uint256"
            },
            {
              "internalType": "uint256",
              "name": "Rank",
              "type": "uint256"
            },
            {
              "internalType": "uint256",
              "name": "Type",
              "type": "uint256"
            },
            {
              "internalType": "uint256",
              "name": "price",
              "type": "uint256"
            }
          ],
          "internalType": "struct SaleToken.TokenInfo",
          "name": "",
          "type": "tuple"
        }
      ],
      "stateMutability": "view",
      "type": "function",
      "constant": true
    }
  ],
  "bytecode": "0x60806040523480156200001157600080fd5b50604051620018f0380380620018f08339818101604052810190620000379190620000e8565b806000806101000a81548173ffffffffffffffffffffffffffffffffffffffff021916908373ffffffffffffffffffffffffffffffffffffffff160217905550506200011a565b600080fd5b600073ffffffffffffffffffffffffffffffffffffffff82169050919050565b6000620000b08262000083565b9050919050565b620000c281620000a3565b8114620000ce57600080fd5b50565b600081519050620000e281620000b7565b92915050565b6000602082840312156200010157620001006200007e565b5b60006200011184828501620000d1565b91505092915050565b6117c6806200012a6000396000f3fe6080604052600436106100865760003560e01c8063921e033b11610059578063921e033b14610138578063a4ad760b14610161578063c24126761461019e578063d63d4af0146101c9578063e5afe3e61461020657610086565b80630c8cc5691461008b5780631899ca99146100c85780633048f512146100f15780634e4dc9881461010d575b600080fd5b34801561009757600080fd5b506100b260048036038101906100ad919061117b565b610243565b6040516100bf91906111b7565b60405180910390f35b3480156100d457600080fd5b506100ef60048036038101906100ea919061117b565b610267565b005b61010b6004803603810190610106919061117b565b610385565b005b34801561011957600080fd5b50610122610599565b60405161012f91906112e5565b60405180910390f35b34801561014457600080fd5b5061015f600480360381019061015a9190611307565b6107f1565b005b34801561016d57600080fd5b50610188600480360381019061018391906113a5565b6109c0565b6040516101959190611427565b60405180910390f35b3480156101aa57600080fd5b506101b3610c97565b6040516101c091906114a1565b60405180910390f35b3480156101d557600080fd5b506101f060048036038101906101eb91906113a5565b610cbb565b6040516101fd91906112e5565b60405180910390f35b34801561021257600080fd5b5061022d6004803603810190610228919061117b565b611024565b60405161023a91906111b7565b60405180910390f35b6002818154811061025357600080fd5b906000526020600020016000915090505481565b60008060009054906101000a900473ffffffffffffffffffffffffffffffffffffffff1673ffffffffffffffffffffffffffffffffffffffff16636352211e836040518263ffffffff1660e01b81526004016102c391906111b7565b602060405180830381865afa1580156102e0573d6000803e3d6000fd5b505050506040513d601f19601f8201168201806040525081019061030491906114d1565b90503373ffffffffffffffffffffffffffffffffffffffff168173ffffffffffffffffffffffffffffffffffffffff161461033e57600080fd5b600060016000848152602001908152602001600020541161035e57600080fd5b600060016000848152602001908152602001600020819055506103808261103c565b505050565b60008060009054906101000a900473ffffffffffffffffffffffffffffffffffffffff1673ffffffffffffffffffffffffffffffffffffffff16636352211e836040518263ffffffff1660e01b81526004016103e191906111b7565b602060405180830381865afa1580156103fe573d6000803e3d6000fd5b505050506040513d601f19601f8201168201806040525081019061042291906114d1565b90503373ffffffffffffffffffffffffffffffffffffffff168173ffffffffffffffffffffffffffffffffffffffff160361045c57600080fd5b600060016000848152602001908152602001600020541161047c57600080fd5b346001600084815260200190815260200160002054111561049c57600080fd5b8073ffffffffffffffffffffffffffffffffffffffff166108fc349081150290604051600060405180830381858888f193505050501580156104e2573d6000803e3d6000fd5b5060008054906101000a900473ffffffffffffffffffffffffffffffffffffffff1673ffffffffffffffffffffffffffffffffffffffff166323b872dd8233856040518463ffffffff1660e01b81526004016105409392919061150d565b600060405180830381600087803b15801561055a57600080fd5b505af115801561056e573d6000803e3d6000fd5b50505050600060016000848152602001908152602001600020819055506105948261103c565b505050565b60606000600280549050116105ad57600080fd5b600060028054905067ffffffffffffffff8111156105ce576105cd611544565b5b60405190808252806020026020018201604052801561060757816020015b6105f4611118565b8152602001906001900390816105ec5790505b50905060005b6002805490508110156107e9576000600282815481106106305761062f611573565b5b9060005260206000200154905060008060009054906101000a900473ffffffffffffffffffffffffffffffffffffffff1673ffffffffffffffffffffffffffffffffffffffff1663d9f33c14836040518263ffffffff1660e01b815260040161069991906111b7565b602060405180830381865afa1580156106b6573d6000803e3d6000fd5b505050506040513d601f19601f820116820180604052508101906106da91906115b7565b905060008060009054906101000a900473ffffffffffffffffffffffffffffffffffffffff1673ffffffffffffffffffffffffffffffffffffffff166376aed2e1846040518263ffffffff1660e01b815260040161073891906111b7565b602060405180830381865afa158015610755573d6000803e3d6000fd5b505050506040513d601f19601f8201168201806040525081019061077991906115b7565b90506000600160008581526020019081526020016000205490506040518060800160405280858152602001848152602001838152602001828152508686815181106107c7576107c6611573565b5b60200260200101819052505050505080806107e190611613565b91505061060d565b508091505090565b60008060009054906101000a900473ffffffffffffffffffffffffffffffffffffffff1673ffffffffffffffffffffffffffffffffffffffff16636352211e846040518263ffffffff1660e01b815260040161084d91906111b7565b602060405180830381865afa15801561086a573d6000803e3d6000fd5b505050506040513d601f19601f8201168201806040525081019061088e91906114d1565b90503373ffffffffffffffffffffffffffffffffffffffff168173ffffffffffffffffffffffffffffffffffffffff16146108c857600080fd5b600082116108d557600080fd5b60008054906101000a900473ffffffffffffffffffffffffffffffffffffffff1673ffffffffffffffffffffffffffffffffffffffff1663e985e9c533306040518363ffffffff1660e01b815260040161093092919061165b565b602060405180830381865afa15801561094d573d6000803e3d6000fd5b505050506040513d601f19601f8201168201806040525081019061097191906116bc565b61097a57600080fd5b8160016000858152602001908152602001600020819055506002839080600181540180825580915050600190039060005260206000200160009091909190915055505050565b6109c8611118565b60008060009054906101000a900473ffffffffffffffffffffffffffffffffffffffff1673ffffffffffffffffffffffffffffffffffffffff166370a08231846040518263ffffffff1660e01b8152600401610a2491906116e9565b602060405180830381865afa158015610a41573d6000803e3d6000fd5b505050506040513d601f19601f82011682018060405250810190610a6591906115b7565b905060008060009054906101000a900473ffffffffffffffffffffffffffffffffffffffff1673ffffffffffffffffffffffffffffffffffffffff16632f745c5985600185610ab49190611704565b6040518363ffffffff1660e01b8152600401610ad1929190611738565b602060405180830381865afa158015610aee573d6000803e3d6000fd5b505050506040513d601f19601f82011682018060405250810190610b1291906115b7565b905060008060009054906101000a900473ffffffffffffffffffffffffffffffffffffffff1673ffffffffffffffffffffffffffffffffffffffff1663d9f33c14836040518263ffffffff1660e01b8152600401610b7091906111b7565b602060405180830381865afa158015610b8d573d6000803e3d6000fd5b505050506040513d601f19601f82011682018060405250810190610bb191906115b7565b905060008060009054906101000a900473ffffffffffffffffffffffffffffffffffffffff1673ffffffffffffffffffffffffffffffffffffffff166376aed2e1846040518263ffffffff1660e01b8152600401610c0f91906111b7565b602060405180830381865afa158015610c2c573d6000803e3d6000fd5b505050506040513d601f19601f82011682018060405250810190610c5091906115b7565b905060006001600085815260200190815260200160002054905060405180608001604052808581526020018481526020018381526020018281525095505050505050919050565b60008054906101000a900473ffffffffffffffffffffffffffffffffffffffff1681565b606060008060009054906101000a900473ffffffffffffffffffffffffffffffffffffffff1673ffffffffffffffffffffffffffffffffffffffff166370a08231846040518263ffffffff1660e01b8152600401610d1991906116e9565b602060405180830381865afa158015610d36573d6000803e3d6000fd5b505050506040513d601f19601f82011682018060405250810190610d5a91906115b7565b905060008103610d6957600080fd5b60008167ffffffffffffffff811115610d8557610d84611544565b5b604051908082528060200260200182016040528015610dbe57816020015b610dab611118565b815260200190600190039081610da35790505b50905060005b828110156110195760008060009054906101000a900473ffffffffffffffffffffffffffffffffffffffff1673ffffffffffffffffffffffffffffffffffffffff16632f745c5987846040518363ffffffff1660e01b8152600401610e2a929190611738565b602060405180830381865afa158015610e47573d6000803e3d6000fd5b505050506040513d601f19601f82011682018060405250810190610e6b91906115b7565b905060008060009054906101000a900473ffffffffffffffffffffffffffffffffffffffff1673ffffffffffffffffffffffffffffffffffffffff1663d9f33c14836040518263ffffffff1660e01b8152600401610ec991906111b7565b602060405180830381865afa158015610ee6573d6000803e3d6000fd5b505050506040513d601f19601f82011682018060405250810190610f0a91906115b7565b905060008060009054906101000a900473ffffffffffffffffffffffffffffffffffffffff1673ffffffffffffffffffffffffffffffffffffffff166376aed2e1846040518263ffffffff1660e01b8152600401610f6891906111b7565b602060405180830381865afa158015610f85573d6000803e3d6000fd5b505050506040513d601f19601f82011682018060405250810190610fa991906115b7565b9050600060016000858152602001908152602001600020549050604051806080016040528085815260200184815260200183815260200182815250868681518110610ff757610ff6611573565b5b602002602001018190525050505050808061101190611613565b915050610dc4565b508092505050919050565b60016020528060005260406000206000915090505481565b600080600090505b60028054905081101561110d57826002828154811061106657611065611573565b5b9060005260206000200154036110fa576002600160028054905061108a9190611704565b8154811061109b5761109a611573565b5b9060005260206000200154600282815481106110ba576110b9611573565b5b906000526020600020018190555060028054806110da576110d9611761565b5b600190038181906000526020600020016000905590556001915050611113565b808061110590611613565b915050611044565b50600090505b919050565b6040518060800160405280600081526020016000815260200160008152602001600081525090565b600080fd5b6000819050919050565b61115881611145565b811461116357600080fd5b50565b6000813590506111758161114f565b92915050565b60006020828403121561119157611190611140565b5b600061119f84828501611166565b91505092915050565b6111b181611145565b82525050565b60006020820190506111cc60008301846111a8565b92915050565b600081519050919050565b600082825260208201905092915050565b6000819050602082019050919050565b61120781611145565b82525050565b60808201600082015161122360008501826111fe565b50602082015161123660208501826111fe565b50604082015161124960408501826111fe565b50606082015161125c60608501826111fe565b50505050565b600061126e838361120d565b60808301905092915050565b6000602082019050919050565b6000611292826111d2565b61129c81856111dd565b93506112a7836111ee565b8060005b838110156112d85781516112bf8882611262565b97506112ca8361127a565b9250506001810190506112ab565b5085935050505092915050565b600060208201905081810360008301526112ff8184611287565b905092915050565b6000806040838503121561131e5761131d611140565b5b600061132c85828601611166565b925050602061133d85828601611166565b9150509250929050565b600073ffffffffffffffffffffffffffffffffffffffff82169050919050565b600061137282611347565b9050919050565b61138281611367565b811461138d57600080fd5b50565b60008135905061139f81611379565b92915050565b6000602082840312156113bb576113ba611140565b5b60006113c984828501611390565b91505092915050565b6080820160008201516113e860008501826111fe565b5060208201516113fb60208501826111fe565b50604082015161140e60408501826111fe565b50606082015161142160608501826111fe565b50505050565b600060808201905061143c60008301846113d2565b92915050565b6000819050919050565b600061146761146261145d84611347565b611442565b611347565b9050919050565b60006114798261144c565b9050919050565b600061148b8261146e565b9050919050565b61149b81611480565b82525050565b60006020820190506114b66000830184611492565b92915050565b6000815190506114cb81611379565b92915050565b6000602082840312156114e7576114e6611140565b5b60006114f5848285016114bc565b91505092915050565b61150781611367565b82525050565b600060608201905061152260008301866114fe565b61152f60208301856114fe565b61153c60408301846111a8565b949350505050565b7f4e487b7100000000000000000000000000000000000000000000000000000000600052604160045260246000fd5b7f4e487b7100000000000000000000000000000000000000000000000000000000600052603260045260246000fd5b6000815190506115b18161114f565b92915050565b6000602082840312156115cd576115cc611140565b5b60006115db848285016115a2565b91505092915050565b7f4e487b7100000000000000000000000000000000000000000000000000000000600052601160045260246000fd5b600061161e82611145565b91507fffffffffffffffffffffffffffffffffffffffffffffffffffffffffffffffff82036116505761164f6115e4565b5b600182019050919050565b600060408201905061167060008301856114fe565b61167d60208301846114fe565b9392505050565b60008115159050919050565b61169981611684565b81146116a457600080fd5b50565b6000815190506116b681611690565b92915050565b6000602082840312156116d2576116d1611140565b5b60006116e0848285016116a7565b91505092915050565b60006020820190506116fe60008301846114fe565b92915050565b600061170f82611145565b915061171a83611145565b92508282101561172d5761172c6115e4565b5b828203905092915050565b600060408201905061174d60008301856114fe565b61175a60208301846111a8565b9392505050565b7f4e487b7100000000000000000000000000000000000000000000000000000000600052603160045260246000fdfea2646970667358221220e372e30745dd028d8142e0d1ea995f7f1b44ef579c756345424725cecad7684f64736f6c634300080f0033",
  "immutableReferences": {},
  "source": "// SPDX-License-Identifier: MIT\npragma solidity ^0.8.15;\n\nimport \"./gyulToken.sol\";\n\ncontract SaleToken{\n    GyulToken public Token;\n\n    constructor(address _tokenAddress){\n        Token = GyulToken(_tokenAddress);\n    }\n\n    struct TokenInfo{\n        uint tokenId;\n        uint Rank;\n        uint Type;\n        uint price;\n    }\n\n    //   \n    mapping(uint => uint) public tokenPrices;\n\n    //   \n    uint[] public SaleTokenList;\n\n    function SalesToken(uint _tokenId, uint _price) public {\n\n        address tokenOwner = Token.ownerOf(_tokenId);\n\n        require((tokenOwner) == msg.sender);\n        require(_price > 0);\n        //  isapprovedForall\n        require(Token.isApprovedForAll(msg.sender, address(this)));\n\n        tokenPrices[_tokenId] = _price;\n        SaleTokenList.push(_tokenId);\n\n    }\n\n    //  -> CA-> \n    function PurchaseToken(uint _tokenId) public payable{\n        address tokenOwner = Token.ownerOf(_tokenId);\n        require(tokenOwner != msg.sender);\n        require(tokenPrices[_tokenId] > 0);\n        require(tokenPrices[_tokenId]<= msg.value);\n\n        payable(tokenOwner).transfer(msg.value);\n\n        Token.transferFrom(tokenOwner, msg.sender, _tokenId);\n        tokenPrices[_tokenId] = 0;\n        popSaleToken(_tokenId);\n    }\n\n        function cancelSaleToken(uint _tokenId) public {\n        address tokenOwner = Token.ownerOf(_tokenId);\n        require(tokenOwner == msg.sender);\n        require(tokenPrices[_tokenId] > 0);\n\n        tokenPrices[_tokenId] = 0;\n        popSaleToken(_tokenId);\n    }\n\n    function popSaleToken(uint _tokenId) private returns(bool){\n        for(uint i=0; i<SaleTokenList.length; i++){\n            if (SaleTokenList[i] == _tokenId){\n                // i = index\n\n                SaleTokenList[i] = SaleTokenList[SaleTokenList.length - 1];\n                SaleTokenList.pop();\n                return true;\n            }\n        }\n        return false;\n    }\n\n    function getSaleTokenList() public view returns(TokenInfo[] memory){\n        require(SaleTokenList.length > 0);\n        TokenInfo[] memory list = new TokenInfo[](SaleTokenList.length);\n\n        for(uint i = 0; i < SaleTokenList.length; i++){\n            uint tokenId = SaleTokenList[i];\n            uint Rank = Token.getTokenRank(tokenId);\n            uint Type = Token.getTokenType(tokenId);\n            uint price = tokenPrices[tokenId];\n            list[i] = TokenInfo(tokenId, Rank, Type, price);\n        }\n\n        return list;\n    }\n\n    function getOwnerTokens(address _tokenOwner) public view returns(TokenInfo[] memory){\n        uint balance = Token.balanceOf(_tokenOwner);\n\n        require(balance != 0);\n        TokenInfo[] memory list = new TokenInfo[](balance);\n        for (uint i=0; i<balance; i++){\n            uint tokenId = Token.tokenOfOwnerByIndex(_tokenOwner, i);\n            uint Rank = Token.getTokenRank(tokenId);\n            uint Type = Token.getTokenType(tokenId);\n            uint price = tokenPrices[tokenId];\n\n            list[i] = TokenInfo(tokenId, Rank, Type, price);\n        }\n\n        return list;\n    }\n\n    //      view \n    function getLatestToken(address _tokenOwner) public view returns(TokenInfo memory){\n        uint balance = Token.balanceOf(_tokenOwner);\n        uint tokenId = Token.tokenOfOwnerByIndex(_tokenOwner, balance-1);\n        uint Rank = Token.getTokenRank(tokenId);\n        uint Type = Token.getTokenType(tokenId);\n        uint price = tokenPrices[tokenId];\n\n        return TokenInfo(tokenId, Rank, Type, price);\n    }\n\n    \n\n}",
  "sourcePath": "/home/gyuri/workspace/blockchain/220728/truffle/contracts/SaleToken.sol",
  "compiler": {
    "name": "solc",
    "version": "0.8.15+commit.e14f2714.Emscripten.clang"
  },
  "schemaVersion": "3.4.8",
  "updatedAt": "2022-08-04T05:55:07.401Z",
  "networkType": "ethereum",
  "devdoc": {
    "kind": "dev",
    "methods": {},
    "version": 1
  },
  "userdoc": {
    "kind": "user",
    "methods": {},
    "version": 1
  }
}